:100000000C944A000C945C000C945C000C945C0012
:100010000C945C000C945C000C945C000C945C00F0
:100020000C945C000C945C000C94D3000C945C0069
:100030000C945C000C945C000C945C000C945C00D0
:100040000C945C000C945C000C945C000C945C00C0
:100050000C945C006E00720076007A007E008200D4
:1000600086008A008E009200A500A500A500A500CC
:10007000A500A500A500A500A500A5009600A2006A
:10008000A500A500A500A500A500A500A500A50048
:100090009E009A0011241FBECFE5D8E0DEBFCDBF81
:1000A00020E0A0E6B0E001C01D92A836B207E1F75B
:1000B0000E9471010C9484010C9400009BB3907F0A
:1000C0009BBB95B315BA462F50E0FA01F097E0328A
:1000D000F105D8F5E65DFF4F0C947E0195B39F6363
:1000E00095BB33C095B3966095BB2FC095B39B6508
:1000F00095BB2BC095B39F6495BB27C095B39666FF
:1001000095BB23C095B39D6695BB1FC095B39D67F6
:1001100095BB1BC095B3976095BB17C095B39F6700
:1001200095BB13C095B39F6695BB0FC095B39F63F6
:1001300095BB0BC095B39F6395BB07C095B3966302
:1001400095BB03C095B3996795BB823069F018F4ED
:10015000813031F00895833059F0843069F008958A
:100160008BB381608BBB08958BB382608BBB08958A
:100170008BB384608BBB08958BB388608BBB089571
:1001800081B3806881BB89E685BD86E683BD08951D
:1001900080E88FBF8BE083BF12BE8DE78CBF89B72D
:1001A000826089BF08951F920F920FB60F9211249B
:1001B0002F933F934F935F936F937F938F939F936F
:1001C000AF93BF93EF93FF93B49B06C081E090E0A1
:1001D0009093630080936200B59B04C0109263000B
:1001E00010926200B69B08C01092630010926200E9
:1001F00010926700109266008091620090916300F7
:10020000892B09F45DC0809164009091650001968E
:100210009093650080936400873E93406CF08091DA
:100220006600909167000196909367008093660046
:1002300010926500109264008091660090916700B2
:10024000059711F486EA83BD80916600909167005E
:100250000A9711F486EE83BD809166009091670045
:100260000F9774F113BC809160009091610001962A
:1002700090936100809360008230910579F01CF4C6
:10028000019739F01DC08330910569F0049781F022
:1002900017C065E681E00E945E0012C06EE482E055
:1002A0000E945E000DC06FE483E00E945E0008C003
:1002B00064E484E00E945E0010926100109260008D
:1002C000FF91EF91BF91AF919F918F917F916F912E
:1002D0005F914F913F912F910F900FBE0F901F9004
:1002E000189587B387BB8AB38F608ABB84B38FEFBF
:1002F00084BB0E94C8000E94C000FFCFEE0FFF1F0A
:0C0300000590F491E02D0994F894FFCFD3
:00000001FF
